:020000040800F2
:10000000980600208901000891010008930100086A
:100010009501000897010008990100080000000000
:100020000000000000000000000000009B0100082C
:100030009D010008000000009F010008A1010008C8
:10004000A3010008A3010008A3010008A301000800
:10005000A3010008A3010008A3010008A3010008F0
:10006000A3010008A3010008A3010008A3010008E0
:10007000A3010008A3010008A3010008A3010008D0
:10008000A3010008A3010008A3010008A3010008C0
:10009000A3010008A3010008A3010008A3010008B0
:1000A000A3010008A3010008A3010008A3010008A0
:1000B000A3010008A3010008A3010008A301000890
:1000C000A3010008A3010008A3010008A301000880
:1000D000A3010008A3010008A3010008A301000870
:1000E000A3010008A3010008A301000800F002F822
:1000F00000F03AF80AA090E8000C82448344AAF188
:100100000107DA4501D100F02FF8AFF2090EBAE885
:100110000F0013F0010F18BFFB1A43F0010318473B
:10012000B4090000D4090000103A24BF78C878C18F
:10013000FAD8520724BF30C830C144BF04680C60ED
:10014000704700000023002400250026103A28BF35
:1001500078C1FBD8520728BF30C148BF0B60704739
:100160001FB51FBD10B510BD00F031F81146FFF7E7
:10017000F7FF00F07BFC00F04FF803B4FFF7F2FF4D
:1001800003BC00F057F800000948804709480047C1
:10019000FEE7FEE7FEE7FEE7FEE7FEE7FEE7FEE737
:1001A000FEE7FEE704480549054A064B7047000094
:1001B000E5080008ED0000089800002098060020DF
:1001C00098020020980200207047704770477546DB
:1001D00000F02CF8AE4605006946534620F00700B3
:1001E000854618B020B5FFF7DDFFBDE820404FF091
:1001F00000064FF000074FF000084FF0000B21F011
:100200000701AC46ACE8C009ACE8C009ACE8C009DD
:10021000ACE8C0098D46704710B50446AFF30080C6
:100220002046BDE81040FFF7A8BF00000048704717
:100230003400002001491820ABBEFEE72600020072
:10024000704700002DE9F0410546884617461E46D6
:100250000121314800F08EF900BF30492E4800F0EE
:1002600046F90028F9D0002241462B4800F014FA44
:1002700000BF2B49284800F03AF90028F9D028128D
:1002800000F016FAE8B200F013FA0121224800F05B
:1002900071F900BF2149204800F029F90028F9D060
:1002A000012241461C4800F0F7F900BF1B49491CD8
:1002B000194800F01CF90028F8D000240DE0164879
:1002C00000F0E6F9305500BF14493F31124800F004
:1002D0000EF90028F8D0601CC4B2781EA042EEDCF3
:1002E00000210D4800F0F7F80B4800F0D1F9305527
:1002F00000BF0A493F31084800F0F9F80028F8D05B
:100300000121054800F042F90121034800F0E3F81B
:100310000120BDE8F081000000540040010003000E
:10032000820007002DE9F0410546884616461F4623
:100330000121174800F01EF900BF1649144800F0CB
:10034000D6F80028F9D000224146114800F0A4F95F
:1003500000BF11490E4800F0CAF80028F9D0281251
:1003600000F0A6F9E8B200F0A3F9002404E0385D3B
:1003700000F09EF9601CC4B2B442F8DB01210448CD
:1003800000F004F9052000F068FB0120BDE8F081D1
:1003900000540040010003008200070008B5C0209F
:1003A000ADF800001C208DF8030003208DF802003A
:1003B0006946024800F004F808BD0000000C014046
:1003C0002DE9F041024600250026002000230024EC
:1003D000002791F803C00CF00F0591F803C00CF052
:1003E000100CBCF1000F03D091F802C04CEA0505D7
:1003F00091F800C0BCF1000F31D0146800202BE050
:100400004FF0010C0CFA00F3B1F800C00CEA03063F
:100410009E4220D183004FF00F0C0CFA03F7BC432F
:1004200005FA03FC4CEA040491F803C0BCF1280F60
:1004300006D14FF0010C0CFA00FCC2F814C00AE01F
:1004400091F803C0BCF1480F05D14FF0010C0CFA34
:1004500000FCC2F810C0401C0828D1D31460B1F8C9
:1004600000C0BCF1FF0F34DD546800202EE000F125
:10047000080C4FF0010808FA0CF3B1F800C00CEAC0
:1004800003069E4221D183004FF00F0C0CFA03F7B4
:10049000BC4305FA03FC4CEA040491F803C0BCF128
:1004A000280F05D100F1080C08FA0CF8C2F81480E6
:1004B00091F803C0BCF1480F07D100F1080C4FF0D0
:1004C000010808FA0CF8C2F81080401C0828CED3A6
:1004D0005460BDE8F08121B1028842F4806202805C
:1004E00004E002884FF6FF331A400280704770B56F
:1004F00002460024002500230020958A138B1B044C
:1005000045EA030626F07F4404EA01068E4201D143
:10051000012000E0002070BD21B1028842F00102FC
:10052000028004E002884FF6FE731A400280704792
:100530001FB50020ADF804000C4800904BF6FF708A
:10054000ADF806000020ADF808004FF48040ADF88B
:100550000C000011ADF80A006946054800F022F8C9
:1005600001210348FFF7D8FF1FBD0000801A0600D5
:100570000054004021B1028842F48072028004E0FD
:1005800002884FF6FF631A400280704721B102884B
:1005900042F40072028004E002884FF6FF531A40D2
:1005A000028070472DE9F04385B004460D460026D1
:1005B000B1460427DFF8CC80A6884FF6C07006400D
:1005C000684600F0B1F8DDF808802F48B8FBF0F07D
:1005D0001FFA80F946EA0906A68020884FF6FE71C8
:1005E0000840208000262949286888420CD82868BD
:1005F0004000B8FBF0F087B2042F00DA04273E4336
:1006000009F10100208427E0E8884BF6FF71884259
:1006100006D1286800EB4000B8FBF0F087B209E093
:10062000286800EBC00101EB0010B8FBF0F087B2C6
:1006300047F48047C7F30B0008B947F0010747F4B8
:10064000004006434FF4967009FB00F04FF47A71B6
:1006500090FBF1F0401C2084A683208840F001002C
:10066000208026884FF6F5300640A888698908431F
:1006700006432680A88929890843208105B0BDE862
:10068000F083000000127A0040420F00A0860100B3
:100690000146088AC0B2704712B141F0010102E080
:1006A0004FF6FE73194001827047018270470000C7
:1006B00010B5044621460548FFF7F7FF00BF04497F
:1006C0000248FFF714FF0028F9D010BD0054004085
:1006D0008400070029B1064AD2690243044BDA615B
:1006E00004E0034AD2698243014BDA61704700009B
:1006F0000010024029B1064A92690243044B9A61F4
:1007000004E0034A92698243014B9A6170470000FA
:100710000010024010B501210820FFF7EBFF012176
:100720000846FFF7D7FF10BD30B500210022002496
:1007300000232D4D6D6805F00C0121B1042905D071
:10074000082923D105E0294D056022E0274D0560E9
:100750001FE0254D6D6805F47012234D6D6805F49A
:100760008034022505EB92421CB9214D55430560AA
:100770000BE01D4D6D6805F400351DB11C4D554352
:10078000056002E0194D5543056002E0174D056014
:1007900000BF00BF144D6D6805F0F0010909154D4B
:1007A0006B5C0568DD4045600F4D6D6805F4E061E8
:1007B000090A104D6B5C4568DD4085600A4D6D6827
:1007C00005F46051C90A0B4D6B5C4568DD40C5609E
:1007D000054D6D6805F44041890B074D6B5CC5689C
:1007E000B5FBF3F5056130BD0010024000127A0040
:1007F00000093D00140000202400002010B500F086
:1008000001F810BD0CB5002001900090334800683D
:1008100040F480303149086000BF3048006800F47F
:10082000003000900198401C0190009818B9019880
:10083000B0F5A06FF1D12948006800F4003010B184
:100840000120009001E0002000900098012843D191
:100850002348006840F010002149086008460068FD
:1008600020F0070008600846006840F002000860B9
:100870001A48406819494860084640684860084678
:10088000406840F4806048600846406820F47C106E
:1008900048600846406840F4E81048600846006830
:1008A00040F08070086000BF0C48006800F00070E5
:1008B0000028F9D00948406820F003000749486043
:1008C0000846406840F00200486000BF03484068A6
:1008D00000F00C000828F9D10CBD00000010024007
:1008E0000020024010B51348006840F00100114993
:1008F000086008464068104908400E4948600846AC
:1009000000680E4908400B4908600846006820F45A
:10091000802008600846406820F4FE0048604FF4DC
:100920001F008860FFF76AFF4FF00060044908600D
:1009300010BD0000001002400000FFF8FFFFF6FEAF
:1009400008ED00E021B1028842F00102028004E0DB
:1009500002884FF6FE731A40028070470146888C69
:100960007047818470470000002202881D4B984226
:100970000ED01D4B98420BD0B0F1804F08D01B4BCE
:10098000984205D01A4B984202D01A4B984204D193
:100990004FF68F731A404B881A43174B984207D073
:1009A000164B984204D04FF6FF431A40CB881A43A7
:1009B00002808B8883850B8803850A4B98420BD075
:1009C000094B984208D00E4B984205D00D4B9842E7
:1009D00002D00D4B984201D10B7A0386012383820A
:1009E00070470000002C014000340140000400402A
:1009F00000080040000C00400010004000140040BF
:100A00000040014000440140004801400EB5002074
:100A1000ADF806004720ADF800004FF6FF70ADF8C6
:100A200004000020ADF8020069464FF08040FFF757
:100A30009BFF01218807FFF785FF0EBD10B5002140
:100A40004FF08040FFF78DFF00BF4FF08040FFF771
:100A500085FFB0F57A7FF8DB10BD10B5044602E0E3
:100A6000FFF7ECFF641E002CFAD110BDFFF752FE19
:100A7000FFF7CCFFFFF792FCFFF75AFD00BF124BC8
:100A80000A2250214520FFF74DFC0028F7D000BF77
:100A90000E4B0A2250216020FFF744FC0028F7D0BB
:100AA00011E000BF0A4B0A2250214520FFF7CAFB84
:100AB0000028F7D000BF064B0A2250216020FFF724
:100AC000C1FB0028F7D0ECE7000000200A0000205E
:100AD00028000020F40A0008000000202800000080
:100AE000280100081C0B00082800002070060000E8
:100AF0004401000803050EDAA66F500000F0010A59
:100B00001924FA103C485977000000000102030440
:0C0B10000102030406070809020406089D
:04000005080000ED02
:00000001FF
