:020000040800F2
:100000008006002089010008910100089301000882
:100010009501000897010008990100080000000000
:100020000000000000000000000000009B0100082C
:100030009D010008000000009F010008A1010008C8
:10004000A3010008A3010008A3010008A301000800
:10005000A3010008A3010008A3010008A3010008F0
:10006000A3010008A3010008A3010008A3010008E0
:10007000A3010008A3010008A3010008A3010008D0
:10008000A3010008A3010008A3010008A3010008C0
:10009000A3010008A3010008A3010008A3010008B0
:1000A000A3010008A3010008A3010008A3010008A0
:1000B000A3010008A3010008A3010008A301000890
:1000C000A3010008A3010008A3010008A301000880
:1000D000A3010008A3010008A3010008A301000870
:1000E000A3010008A3010008A301000800F002F822
:1000F00000F03AF80AA090E8000C82448344AAF188
:100100000107DA4501D100F02FF8AFF2090EBAE885
:100110000F0013F0010F18BFFB1A43F0010318473B
:100120007C0800009C080000103A24BF78C878C101
:10013000FAD8520724BF30C830C144BF04680C60ED
:10014000704700000023002400250026103A28BF35
:1001500078C1FBD8520728BF30C148BF0B60704739
:100160001FB51FBD10B510BD00F031F81146FFF7E7
:10017000F7FF00F0DFFB00F04FF803B4FFF7F2FFEA
:1001800003BC00F057F800000948804709480047C1
:10019000FEE7FEE7FEE7FEE7FEE7FEE7FEE7FEE737
:1001A000FEE7FEE704480549054A064B7047000094
:1001B0008D070008ED000008800000208006002068
:1001C000800200208002002070477047704775460B
:1001D00000F02CF8AE4605006946534620F00700B3
:1001E000854618B020B5FFF7DDFFBDE820404FF091
:1001F00000064FF000074FF000084FF0000B21F011
:100200000701AC46ACE8C009ACE8C009ACE8C009DD
:10021000ACE8C0098D46704710B50446AFF30080C6
:100220002046BDE81040FFF7A8BF00000048704717
:100230002000002001491820ABBEFEE72600020086
:1002400070472DE9F04105460E4690461F4600F0E6
:100250007BF97106080E00F0B1F920B900F094F9AD
:100260000020BDE8F081281200F0A8F918B900F0CC
:100270008BF90020F5E7E8B200F0A0F918B900F01A
:1002800083F90020EDE700F05FF9012101EB460161
:10029000C8B200F093F918B900F076F90020E0E751
:1002A000002405E0012000F007F93855601CC4B2B5
:1002B000A8F10100A042F5DC002000F0FDF838555F
:1002C00000F062F90120CCE72DE9F04105460E4629
:1002D0001746984600242EE000F036F97106080E05
:1002E00000F06CF920B900F04FF90020BDE8F08172
:1002F0002919C1F3072000F061F918B900F044F999
:100300000020F3E72919C8B200F058F918B900F035
:100310003BF90020EAE718F8040000F04FF918B99B
:1003200000F032F90020E1E700F02EF90A2000F099
:10033000E8FA601CC4B2BC42CEDB0120D6E7000064
:1003400008B5C020ADF8000014208DF8030003208C
:100350008DF802006946024800F004F808BD00006C
:10036000000C01402DE9F041024600250026002046
:1003700000230024002791F803C00CF00F0591F82A
:1003800003C00CF0100CBCF1000F03D091F802C0B8
:100390004CEA050591F800C0BCF1000F31D014689B
:1003A00000202BE04FF0010C0CFA00F3B1F800C074
:1003B0000CEA03069E4220D183004FF00F0C0CFA8A
:1003C00003F7BC4305FA03FC4CEA040491F803C0AC
:1003D000BCF1280F06D14FF0010C0CFA00FCC2F85A
:1003E00014C00AE091F803C0BCF1480F05D14FF0EA
:1003F000010C0CFA00FCC2F810C0401C0828D1D334
:100400001460B1F800C0BCF1FF0F34DD5468002067
:100410002EE000F1080C4FF0010808FA0CF3B1F8D7
:1004200000C00CEA03069E4221D183004FF00F0C5E
:100430000CFA03F7BC4305FA03FC4CEA040491F8F8
:1004400003C0BCF1280F05D100F1080C08FA0CF824
:10045000C2F8148091F803C0BCF1480F07D100F135
:10046000080C4FF0010808FA0CF8C2F81080401C84
:100470000828CED35460BDE8F0810246002093687E
:100480000B400BB1012000E0002070474161704734
:100490000161704710B580210648FFF7F9FF03207E
:1004A00000F038FA40210348FFF7F2FF032000F084
:1004B00031FA10BD000C014070B5054600248021C2
:1004C0002048FFF7E5FF012000F024FA00261AE09B
:1004D0006006040E40211B48FFF7DAFF032000F0FE
:1004E00019FA80211748FFF7C8FF08B144F001044A
:1004F000022000F00FFA40211248FFF7C7FF052045
:1005000000F008FA761C082EE2DB25B180210D48A8
:10051000FFF7BCFF03E080210A48FFF7B9FF012085
:1005200000F0F8F940210748FFF7B2FF052000F07E
:10053000F1F940210348FFF7A9FF052000F0EAF98F
:10054000204670BD000C014010B540210D48FFF75A
:100550009FFF032000F0DEF980210A48FFF798FF93
:10056000032000F0D7F980210648FFF78FFF032012
:1005700000F0D0F940210348FFF788FF032000F086
:10058000C9F910BD000C014010B580210A48FFF7E1
:100590007DFF032000F0BEF940210748FFF778FFF8
:1005A000032000F0B7F980210348FFF771FF032013
:1005B00000F0B0F910BD0000000C014070B5044619
:1005C00000261FE004F0800020B180211F48FFF7C3
:1005D0005FFF03E080211D48FFF758FF032000F074
:1005E00099F940211948FFF753FF052000F092F9CF
:1005F00040211648FFF74AFF052000F08BF96006FE
:10060000040E761C082EDDDB80211048FFF740FF2A
:10061000032000F07FF940210C48FFF739FF032049
:1006200000F078F980210948FFF727FF08B100257D
:1006300000E00125022000F06DF940210348FFF79A
:1006400025FF052000F066F9284670BD000C01402A
:1006500029B1064AD2690243044BDA6104E0034A35
:10066000D2698243014BDA617047000000100240FA
:1006700029B1064A92690243044B9A6104E0034A95
:1006800092698243014B9A6170470000001002405A
:1006900010B501210820FFF7EBFF01210846FFF705
:1006A000D7FF10BD10B500F001F810BD0CB500204B
:1006B000019000903348006840F480303149086070
:1006C00000BF3048006800F4003000900198401CE2
:1006D0000190009818B90198B0F5A06FF1D12948A0
:1006E000006800F4003010B10120009001E000200B
:1006F00000900098012843D12348006840F0100082
:10070000214908600846006820F007000860084694
:10071000006840F0020008601A48406819494860C3
:100720000846406848600846406840F48060486079
:100730000846406820F47C1048600846406840F451
:10074000E81048600846006840F08070086000BF0C
:100750000C48006800F000700028F9D00948406893
:1007600020F00300074948600846406840F0020056
:10077000486000BF0348406800F00C000828F9D129
:100780000CBD0000001002400020024010B51348CC
:10079000006840F0010011490860084640681049AF
:1007A00008400E494860084600680E4908400B4959
:1007B00008600846006820F4802008600846406809
:1007C00020F4FE0048604FF41F008860FFF76AFFC6
:1007D0004FF000600449086010BD000000100240A6
:1007E0000000FFF8FFFFF6FE08ED00E021B10288EF
:1007F00042F00102028004E002884FF6FE731A40C4
:10080000028070470146888C7047818470470000E1
:10081000002202881D4B98420ED01D4B98420BD0EF
:10082000B0F1804F08D01B4B984205D01A4B98422C
:1008300002D01A4B984204D14FF68F731A404B885E
:100840001A43174B984207D0164B984204D04FF6E4
:10085000FF431A40CB881A4302808B8883850B881C
:1008600003850A4B98420BD0094B984208D00E4B97
:10087000984205D00D4B984202D00D4B984201D1C1
:100880000B7A03860123838270470000002C01400D
:10089000003401400004004000080040000C00400B
:1008A000001000400014004000400140004401409E
:1008B000004801400EB50020ADF806004720ADF815
:1008C00000004FF6FF70ADF804000020ADF8020004
:1008D00069464FF08040FFF79BFF01218807FFF733
:1008E00085FF0EBD10B500214FF08040FFF78DFF52
:1008F00000BF4FF08040FFF785FFB0F57A7FF8DB4F
:1009000010BD10B5044602E0FFF7ECFF641E002C9A
:10091000FAD110BD10B5044600214FF08040FFF71A
:1009200074FF00BF4FF08040FFF76CFFA042F9D387
:1009300010BD0000FFF7ACFEFFF7BCFFFFF700FDA6
:10094000FFF7A8FD00BF124B0A2250214520FFF7F8
:10095000BBFC0028F7D000BF0E4B0A2250216020BC
:10096000FFF7B2FC0028F7D011E000BF0A4B0A22C3
:1009700050214520FFF765FC0028F7D000BF064B4B
:100980000A2250216020FFF75CFC0028F7D0ECE73A
:10099000000000200A00002014000020BC0900080C
:1009A000000000201400000028010008D009000801
:1009B000140000206C0600004401000803050EDA54
:1009C000A66F500000F0010A1924FA103C4859772C
:04000005080000ED02
:00000001FF
